:04000000FEEFFFF020
:072600000052504D3A0000AA
:10260800000E116E000E106E10500B24D96E115072
:102618000C20DA6E09C501F50AC502F5000E046E34
:102628000A0E036EA2EC15F00150300FDF6E104A4F
:10263800112A09C501F50AC502F5000E046E0A0E35
:10264800036E33EC15F001C509F502C50AF509500A
:102658000A10D8A432EF13F034EF13F008EF13F098
:1026680010500B24D96E11500C20DA6EDF6A000E60
:10267800136E000E126E75EF13F012500B24D96E04
:1026880013500C20DA6EDF500F6E12500B5C0D6E7B
:1026980013500C580E6E10500D2611500E22FF0EBE
:1026A8000D24D96EFF0E0E20DA6E12500B24E16E47
:1026B80013500C20E26EDFC4E7F412500B5C0D6E71
:1026C80013500C580E6E10500D2611500E22FF0E8E
:1026D8000D24D96EFF0E0E20DA6E0FC5DFF4124AF4
:1026E800132A10C501F511C502F5000E046E020E7D
:1026F800036EF1EC13F00150125C1350800A0D6E5A
:102708000250800A0D58D8A08CEF13F08EEF13F00A
:1027180041EF13F01200CBEC16F001C522F502C50B
:1027280023F503C524F504C525F5225023102410EC
:102738002510D8A4A2EF13F0A4EF13F0AAEF13F01A
:10274800000E1B6E000E1A6EF0EF13F0000E0D6EE9
:102758006C0E0E6EDC0E0F6E020E106E22C511F599
:1027680023C512F524C513F525C514F552EC14F04C
:102778000DC51CF50EC51DF50FC51EF510C51FF5B9
:102788001CC501F51DC502F51EC503F51FC504F5D9
:102798003C0E056E000E066E000E076E000E086EEB
:1027A8006DEC15F001C50DF502C50EF503C50FF565
:1027B80004C510F5320E116E000E126E000E136E67
:1027C800000E146E52EC14F00DC520F50EC521F55F
:1027D80020C51AF521C51BF51200066A04BEF9EFDB
:1027E80013F0F7EF13F0FFEF13F0036C041ED8B0EB
:1027F800042A010E066E02BE06EF14F004EF14F070
:102808000CEF14F0016C021ED8B0022A010E061A51
:10281800000E086E000E076E03500410D8B417EFB0
:1028280014F019EF14F041EF14F0010E056E21EFCA
:1028380014F0D89003360436052A04AE26EF14F0B7
:1028480028EF14F01DEF14F0D8900736083603501F
:10285800015C04500258D8A034EF14F036EF14F09D
:102868003BEF14F00350015E0450025A0780D890E1
:1028780004320332052E28EF14F00650D8B447EF7F
:1028880014F049EF14F04DEF14F0076C081ED8B09F
:10289800082A07C501F508C502F51200000E156ED5
:1028A800000E166E000E176E000E186E11501210E4
:1028B80013101410D8B463EF14F065EF14F09BEF05
:1028C80014F0010E196E6FEF14F0D890113612360D
:1028D80013361436192A14AE74EF14F076EF14F088
:1028E80069EF14F0D8901536163617361836115089
:1028F8000D5C12500E5813500F5814501058D8A091
:1029080088EF14F08AEF14F093EF14F011500D5E75
:1029180012500E5A13500F5A1450105A1580D8904E
:102928001432133212321132192E76EF14F015C503
:102938000DF516C50EF517C50FF518C510F51200DB
:10294800070E066E170E056E6A0EE82EFED7052EC8
:10295800FCD7062EFAD700D0030EF0EC14F04E0E7A
:10296800056EEB0EE82EFED7052EFCD70000030EF1
:10297800F0EC14F0030E056E550EE82EFED7052E6A
:10298800FCD70000030EF0EC14F0030E056E550E94
:10299800E82EFED7052EFCD70000020EF0EC14F04E
:1029A8004E0E056EEB0EE82EFED7052EFCD7000066
:1029B800280E63EC16F00C0E63EC16F0060E63ECB2
:1029C80016F0010E63EC16F0200E056E2A0EE82EA6
:1029D800FED7052EFCD71200026E02C501F5010EC6
:1029E8000116C0500118FE0B0118C06E02C501F592
:1029F800D8900132010E01160146C0500118FD0B96
:102A08000118C06E02C501F5D8900132D890013284
:102A1800010E011601460146C0500118FB0B0118B2
:102A2800C06E02C501F5D8900132D8900132D89015
:102A38000132010E0116014601460146C050011837
:102A4800F70B0118C06E280EE82EFED7BE8C040EB8
:102A5800E82EFED7BE9CC80EE82EFED71200000E48
:102A6800066E000E056E03500410D8B43EEF15F044
:102A780040EF15F068EF15F0010E076E48EF15F0FE
:102A8800D89003360436072A04AE4DEF15F04FEF01
:102A980015F044EF15F0D890053606360350015C62
:102AA80004500258D8A05BEF15F05DEF15F062EF07
:102AB80015F00350015E0450025A0580D890043284
:102AC8000332072E4FEF15F005C501F506C502F5CF
:102AD8001200000E096E000E0A6E000E0B6E000E3C
:102AE8000C6E01A07AEF15F07CEF15F084EF15F06D
:102AF8000550092606500A2207500B2208500C22BE
:102B0800D8900536063607360836D8900432033290
:102B1800023201320150021003100410D8A497EFBA
:102B280015F099EF15F075EF15F009C501F50AC50F
:102B380002F50BC503F50CC504F51200035004108B
:102B4800D8B4A9EF15F0ABEF15F0CFEF15F0010EE3
:102B5800056EB3EF15F0D89003360436052A04AE97
:102B6800B8EF15F0BAEF15F0AFEF15F00350015CB0
:102B780004500258D8A0C3EF15F0C5EF15F0C9EFFF
:102B880015F00350015E0450025AD8900432033203
:102B9800052EBAEF15F001C501F502C502F51200C0
:102BA800EBEF15F004C5F6F405C5F7F4000EF86E62
:102BB800250EF76403D00800F55005D0F6C4E9F4F3
:102BC800F7C4EAF4EF5086EC16F0044A052A04C567
:102BD800F6F405C5F7F4000EF86E250EF76403D079
:102BE8000800F55005D0F6C4E9F4F7C4EAF4EF504C
:102BF8000009D8A402EF16F004EF16F0D6EF15F08E
:102C08001200BE6ABF6AC06A3F0EC66EC768F00E81
:102C1800C86EEC0E0401106F08690069216B096B1E
:102C2800016B116B0201896B886B876B866B0401E2
:102C3800226B026B0A6B126B03690B6913690469D7
:102C48000C691469080E246F100E0201596F110ED9
:102C58005A6F1200A1EC16F0A4EC14F08FEC13F0EC
:102C68001AC528F51BC529F528C51CF529C51DF564
:102C78004EEC16F01F0E276E710E266E1E0EE82EF5
:102C8800FED7262EFCD7272EFAD700D032EF16F023
:102C9800FEEFFFF0800E63EC16F0010E046E045098
:102CA800D8A4260E056ED4EC15F0C00E63EC16F011
:102CB8001CC514F51DC515F575EC16F01200046E4B
:102CC800BE9E04380F0BF0EC14F004500F0BF0EC20
:102CD80014F0200E036E2A0EE82EFED7032EFCD722
:102CE800120014C509F515C50AF5160E0B6E050E6A
:102CF8000C6E04EC13F0160E046E050E056ED4EC83
:102D080015F01200036EBE8E03380F0BF0EC14F0B2
:102D180003500F0BF0EC14F0C80EE82EFED712008B
:102D2800800E03010C6F080E0D6F0E6B0F6B116B8D
:102D3800106B0B6B0A6B096B1200B7EC16F005EC05
:102D480016F0C1EC16F094EC16F0ACEC16F012008C
:102D5800040E0301266F256B276B2369226BB1963E
:102D6800C00E246F12000001606B616B636B646BB3
:102D7800656B666B676B686B1200600E0001AD6F68
:102D8800AF6BB36B070EB16FB06BAC6B1200030186
:102D98000351016E0451026E0551036E046A12005C
:0A2DA800000EF86E00012EEF16F089
:020000040001F9
:04FFFC00D4EF16F038
:020000040030CA
:08000000ECFFF7FF9FFFFFFF7B
:01000900FFF7
:00000001FF
